{
  "_format": "hh-sol-artifact-1",
  "contractName": "HealthcareProviderRegistry",
  "sourceName": "contracts/HealthcareProviderRegistry.sol",
  "abi": [
    {
      "inputs": [],
      "stateMutability": "nonpayable",
      "type": "constructor"
    },
    {
      "anonymous": false,
      "inputs": [
        {
          "indexed": true,
          "internalType": "address",
          "name": "providerAddress",
          "type": "address"
        },
        {
          "indexed": false,
          "internalType": "string",
          "name": "newDataCID",
          "type": "string"
        }
      ],
      "name": "ProviderDataUpdated",
      "type": "event"
    },
    {
      "anonymous": false,
      "inputs": [
        {
          "indexed": true,
          "internalType": "address",
          "name": "providerAddress",
          "type": "address"
        },
        {
          "indexed": false,
          "internalType": "string",
          "name": "dataCID",
          "type": "string"
        }
      ],
      "name": "ProviderRegistered",
      "type": "event"
    },
    {
      "anonymous": false,
      "inputs": [
        {
          "indexed": true,
          "internalType": "address",
          "name": "providerAddress",
          "type": "address"
        }
      ],
      "name": "ProviderVerified",
      "type": "event"
    },
    {
      "inputs": [],
      "name": "admin",
      "outputs": [
        {
          "internalType": "address",
          "name": "",
          "type": "address"
        }
      ],
      "stateMutability": "view",
      "type": "function"
    },
    {
      "inputs": [
        {
          "internalType": "address",
          "name": "providerAddress",
          "type": "address"
        }
      ],
      "name": "getProviderDataCID",
      "outputs": [
        {
          "internalType": "string",
          "name": "",
          "type": "string"
        }
      ],
      "stateMutability": "view",
      "type": "function"
    },
    {
      "inputs": [
        {
          "internalType": "address",
          "name": "providerAddress",
          "type": "address"
        }
      ],
      "name": "isProviderRegistered",
      "outputs": [
        {
          "internalType": "bool",
          "name": "",
          "type": "bool"
        }
      ],
      "stateMutability": "view",
      "type": "function"
    },
    {
      "inputs": [
        {
          "internalType": "address",
          "name": "providerAddress",
          "type": "address"
        }
      ],
      "name": "isProviderVerified",
      "outputs": [
        {
          "internalType": "bool",
          "name": "",
          "type": "bool"
        }
      ],
      "stateMutability": "view",
      "type": "function"
    },
    {
      "inputs": [
        {
          "internalType": "string",
          "name": "dataCID",
          "type": "string"
        }
      ],
      "name": "registerHealthcareProvider",
      "outputs": [],
      "stateMutability": "nonpayable",
      "type": "function"
    },
    {
      "inputs": [
        {
          "internalType": "string",
          "name": "newDataCID",
          "type": "string"
        }
      ],
      "name": "updateDataCID",
      "outputs": [],
      "stateMutability": "nonpayable",
      "type": "function"
    },
    {
      "inputs": [
        {
          "internalType": "address",
          "name": "providerAddress",
          "type": "address"
        }
      ],
      "name": "verifyHealthcareProvider",
      "outputs": [],
      "stateMutability": "nonpayable",
      "type": "function"
    }
  ],
  "bytecode": "0x608060405234801561001057600080fd5b50600080546001600160a01b03191633179055610852806100326000396000f3fe608060405234801561001057600080fd5b506004361061007d5760003560e01c8063abfa84a31161005b578063abfa84a3146100de578063b2469a60146100f3578063d62e3aa414610106578063f851a440146101195761007d565b80631ead914e1461008257806358bd1175146100ab5780639971ff76146100be575b600080fd5b6100956100903660046105bd565b61012e565b6040516100a2919061066c565b60405180910390f35b6100956100b93660046105bd565b61014c565b6100d16100cc3660046105bd565b61016f565b6040516100a291906106a6565b6100f16100ec3660046105bd565b610251565b005b6100f16101013660046105eb565b610301565b6100f16101143660046105eb565b610396565b6101216104a1565b6040516100a29190610658565b6001600160a01b031660009081526001602052604090205460ff1690565b6001600160a01b0316600090815260016020526040902054610100900460ff1690565b6000546060906001600160a01b031633146101a55760405162461bcd60e51b815260040161019c906107aa565b60405180910390fd5b6001600160a01b03821660009081526001602081905260409091200180546101cc906107e1565b80601f01602080910402602001604051908101604052809291908181526020018280546101f8906107e1565b80156102455780601f1061021a57610100808354040283529160200191610245565b820191906000526020600020905b81548152906001019060200180831161022857829003601f168201915b50505050509050919050565b6000546001600160a01b0316331461027b5760405162461bcd60e51b815260040161019c906107aa565b6001600160a01b03811660009081526001602052604090205460ff166102b35760405162461bcd60e51b815260040161019c90610773565b6001600160a01b038116600081815260016020526040808220805461ff001916610100179055517f7fc55fec427bea4557470f5840c8b7dd03cf29961d91f63da9fc301b360d771b9190a250565b3360009081526001602052604090205460ff166103305760405162461bcd60e51b815260040161019c90610730565b33600090815260016020819052604090912061034e910183836104b0565b50336001600160a01b03167f48b5a8d68f51a0c96fed68e4438f23c8aec3b42119862d931cb8ebab645adc0f838360405161038a929190610677565b60405180910390a25050565b3360009081526001602052604090205460ff16156103c65760405162461bcd60e51b815260040161019c906106f9565b604051806060016040528060011515815260200160001515815260200183838080601f016020809104026020016040519081016040528093929190818152602001838380828437600092018290525093909452505033815260016020818152604092839020855181548784015115156101000261ff001992151560ff19909216919091179190911617815592850151805193945061046a9392850192910190610534565b50506040513391507fa00c17d90dc9545180b0d6f2e70cc74863ee2e01212b81d549aa3cb67150c9369061038a9085908590610677565b6000546001600160a01b031681565b8280546104bc906107e1565b90600052602060002090601f0160209004810192826104de5760008555610524565b82601f106104f75782800160ff19823516178555610524565b82800160010185558215610524579182015b82811115610524578235825591602001919060010190610509565b506105309291506105a8565b5090565b828054610540906107e1565b90600052602060002090601f0160209004810192826105625760008555610524565b82601f1061057b57805160ff1916838001178555610524565b82800160010185558215610524579182015b8281111561052457825182559160200191906001019061058d565b5b8082111561053057600081556001016105a9565b6000602082840312156105ce578081fd5b81356001600160a01b03811681146105e4578182fd5b9392505050565b600080602083850312156105fd578081fd5b823567ffffffffffffffff80821115610614578283fd5b818501915085601f830112610627578283fd5b813581811115610635578384fd5b866020828501011115610646578384fd5b60209290920196919550909350505050565b6001600160a01b0391909116815260200190565b901515815260200190565b60006020825282602083015282846040840137818301604090810191909152601f909201601f19160101919050565b6000602080835283518082850152825b818110156106d2578581018301518582016040015282016106b6565b818111156106e35783604083870101525b50601f01601f1916929092016040019392505050565b6020808252601b908201527f50726f766964657220616c726561647920726567697374657265640000000000604082015260600190565b60208082526023908201527f43616c6c6572206973206e6f74206120726567697374657265642070726f76696040820152623232b960e91b606082015260800190565b60208082526017908201527f50726f7669646572206e6f742072656769737465726564000000000000000000604082015260600190565b60208082526017908201527f43616c6c6572206973206e6f74207468652061646d696e000000000000000000604082015260600190565b6002810460018216806107f557607f821691505b6020821081141561081657634e487b7160e01b600052602260045260246000fd5b5091905056fea2646970667358221220b01d2b82b8e917180ca9e61077e962b6d7ad3a64a823b3431a0cbb718a13a61b64736f6c63430008000033",
  "linkReferences": {},
  "deployedLinkReferences": {}
}