{
  "_format": "hh-sol-artifact-1",
  "contractName": "AccessControl",
  "sourceName": "contracts/AccessControl.sol",
  "abi": [
    {
      "inputs": [
        {
          "internalType": "address",
          "name": "_patientRegistryAddress",
          "type": "address"
        },
        {
          "internalType": "address",
          "name": "_providerRegistryAddress",
          "type": "address"
        }
      ],
      "stateMutability": "nonpayable",
      "type": "constructor"
    },
    {
      "anonymous": false,
      "inputs": [
        {
          "indexed": true,
          "internalType": "address",
          "name": "patientAddress",
          "type": "address"
        },
        {
          "indexed": true,
          "internalType": "address",
          "name": "providerAddress",
          "type": "address"
        }
      ],
      "name": "AccessApproved",
      "type": "event"
    },
    {
      "anonymous": false,
      "inputs": [
        {
          "indexed": true,
          "internalType": "address",
          "name": "patientAddress",
          "type": "address"
        },
        {
          "indexed": true,
          "internalType": "address",
          "name": "providerAddress",
          "type": "address"
        },
        {
          "indexed": false,
          "internalType": "bytes32",
          "name": "purposeHash",
          "type": "bytes32"
        }
      ],
      "name": "AccessRequested",
      "type": "event"
    },
    {
      "anonymous": false,
      "inputs": [
        {
          "indexed": true,
          "internalType": "address",
          "name": "patientAddress",
          "type": "address"
        },
        {
          "indexed": true,
          "internalType": "address",
          "name": "providerAddress",
          "type": "address"
        }
      ],
      "name": "AccessRevoked",
      "type": "event"
    },
    {
      "inputs": [
        {
          "internalType": "address",
          "name": "providerAddress",
          "type": "address"
        }
      ],
      "name": "approveAccess",
      "outputs": [],
      "stateMutability": "nonpayable",
      "type": "function"
    },
    {
      "inputs": [
        {
          "internalType": "address",
          "name": "patientAddress",
          "type": "address"
        },
        {
          "internalType": "address",
          "name": "providerAddress",
          "type": "address"
        }
      ],
      "name": "checkAccess",
      "outputs": [
        {
          "internalType": "bool",
          "name": "",
          "type": "bool"
        }
      ],
      "stateMutability": "view",
      "type": "function"
    },
    {
      "inputs": [
        {
          "internalType": "address",
          "name": "patientAddress",
          "type": "address"
        },
        {
          "internalType": "bytes32",
          "name": "purposeHash",
          "type": "bytes32"
        }
      ],
      "name": "requestAccess",
      "outputs": [],
      "stateMutability": "nonpayable",
      "type": "function"
    },
    {
      "inputs": [
        {
          "internalType": "address",
          "name": "providerAddress",
          "type": "address"
        }
      ],
      "name": "revokeAccess",
      "outputs": [],
      "stateMutability": "nonpayable",
      "type": "function"
    }
  ],
  "bytecode": "0x608060405234801561001057600080fd5b5060405161077038038061077083398101604081905261002f9161007c565b600180546001600160a01b039384166001600160a01b031991821617909155600280549290931691161790556100ae565b80516001600160a01b038116811461007757600080fd5b919050565b6000806040838503121561008e578182fd5b61009783610060565b91506100a560208401610060565b90509250929050565b6106b3806100bd6000396000f3fe608060405234801561001057600080fd5b506004361061004c5760003560e01c806362e1f74514610051578063705211f41461007a57806385e685311461008f578063a57ae0dc146100a2575b600080fd5b61006461005f3660046104f4565b6100b5565b6040516100719190610583565b60405180910390f35b61008d6100883660046104d3565b6100e1565b005b61008d61009d3660046104d3565b61021f565b61008d6100b0366004610526565b610350565b6001600160a01b0391821660009081526020818152604080832093909416825291909152205460ff1690565b600154604051631016d63760e31b81526001600160a01b03909116906380b6b1b89061011190339060040161056f565b60206040518083038186803b15801561012957600080fd5b505afa15801561013d573d6000803e3d6000fd5b505050506040513d601f19601f82011682018060405250810190610161919061054f565b6101865760405162461bcd60e51b815260040161017d9061060f565b60405180910390fd5b336000908152602081815260408083206001600160a01b038516845290915290205460ff16156101c85760405162461bcd60e51b815260040161017d906105d8565b336000818152602081815260408083206001600160a01b0386168085529252808320805460ff19166001179055519092917fe6334627d2d1b816244f24397d90a02beea6f06a64333958f2fca9a73f84266d91a350565b600154604051631016d63760e31b81526001600160a01b03909116906380b6b1b89061024f90339060040161056f565b60206040518083038186803b15801561026757600080fd5b505afa15801561027b573d6000803e3d6000fd5b505050506040513d601f19601f8201168201806040525081019061029f919061054f565b6102bb5760405162461bcd60e51b815260040161017d9061060f565b336000908152602081815260408083206001600160a01b038516845290915290205460ff166102fc5760405162461bcd60e51b815260040161017d90610651565b336000818152602081815260408083206001600160a01b0386168085529252808320805460ff19169055519092917f825c8be24eb0df19500f63e86c29e7d0d951e73056b889b891d85e40938d9b6e91a350565b6002546040516358bd117560e01b81526001600160a01b03909116906358bd11759061038090339060040161056f565b60206040518083038186803b15801561039857600080fd5b505afa1580156103ac573d6000803e3d6000fd5b505050506040513d601f19601f820116820180604052508101906103d0919061054f565b6103ec5760405162461bcd60e51b815260040161017d90610597565b6001600160a01b03821660009081526020818152604080832033845290915290205460ff161561042e5760405162461bcd60e51b815260040161017d906105d8565b604080518082018252600080825260208083018581526001600160a01b038716808452838352858420338086529352928590209351845460ff19169015151784555160019093019290925591519091907f9f00d79b7d4f509f98995d4bd704373847ed675ba56d053774f53479ecf68b01906104ab90859061058e565b60405180910390a35050565b80356001600160a01b03811681146104ce57600080fd5b919050565b6000602082840312156104e4578081fd5b6104ed826104b7565b9392505050565b60008060408385031215610506578081fd5b61050f836104b7565b915061051d602084016104b7565b90509250929050565b60008060408385031215610538578182fd5b610541836104b7565b946020939093013593505050565b600060208284031215610560578081fd5b815180151581146104ed578182fd5b6001600160a01b0391909116815260200190565b901515815260200190565b90815260200190565b60208082526021908201527f43616c6c6572206973206e6f7420612076657269666965642070726f766964656040820152603960f91b606082015260800190565b60208082526017908201527f41636365737320616c726561647920617070726f766564000000000000000000604082015260600190565b60208082526022908201527f43616c6c6572206973206e6f74206120726567697374657265642070617469656040820152611b9d60f21b606082015260800190565b6020808252601290820152711058d8d95cdcc81b9bdd0819dc985b9d195960721b60408201526060019056fea26469706673582212209dc1b448e906b219f63102961b25d2983f703ee99f2883e353783f4fde5420a964736f6c63430008000033",
  "linkReferences": {},
  "deployedLinkReferences": {}
}