{
  "_format": "hh-sol-artifact-1",
  "contractName": "PatientRegistry",
  "sourceName": "contracts/PatientRegistry.sol",
  "abi": [
    {
      "anonymous": false,
      "inputs": [
        {
          "indexed": true,
          "internalType": "address",
          "name": "patientAddress",
          "type": "address"
        },
        {
          "indexed": true,
          "internalType": "address",
          "name": "providerAddress",
          "type": "address"
        }
      ],
      "name": "AccessGranted",
      "type": "event"
    },
    {
      "anonymous": false,
      "inputs": [
        {
          "indexed": true,
          "internalType": "address",
          "name": "patientAddress",
          "type": "address"
        },
        {
          "indexed": true,
          "internalType": "address",
          "name": "providerAddress",
          "type": "address"
        }
      ],
      "name": "AccessRevoked",
      "type": "event"
    },
    {
      "anonymous": false,
      "inputs": [
        {
          "indexed": true,
          "internalType": "address",
          "name": "patientAddress",
          "type": "address"
        },
        {
          "indexed": false,
          "internalType": "string",
          "name": "newDataCID",
          "type": "string"
        }
      ],
      "name": "DataCIDUpdated",
      "type": "event"
    },
    {
      "anonymous": false,
      "inputs": [
        {
          "indexed": true,
          "internalType": "address",
          "name": "patientAddress",
          "type": "address"
        },
        {
          "indexed": false,
          "internalType": "string",
          "name": "dataCID",
          "type": "string"
        }
      ],
      "name": "PatientRegistered",
      "type": "event"
    },
    {
      "inputs": [
        {
          "internalType": "address",
          "name": "patientAddress",
          "type": "address"
        }
      ],
      "name": "getDataCID",
      "outputs": [
        {
          "internalType": "string",
          "name": "",
          "type": "string"
        }
      ],
      "stateMutability": "view",
      "type": "function"
    },
    {
      "inputs": [
        {
          "internalType": "address",
          "name": "providerAddress",
          "type": "address"
        }
      ],
      "name": "grantAccess",
      "outputs": [],
      "stateMutability": "nonpayable",
      "type": "function"
    },
    {
      "inputs": [
        {
          "internalType": "address",
          "name": "patientAddress",
          "type": "address"
        },
        {
          "internalType": "address",
          "name": "providerAddress",
          "type": "address"
        }
      ],
      "name": "isAuthorized",
      "outputs": [
        {
          "internalType": "bool",
          "name": "",
          "type": "bool"
        }
      ],
      "stateMutability": "view",
      "type": "function"
    },
    {
      "inputs": [
        {
          "internalType": "address",
          "name": "patientAddress",
          "type": "address"
        }
      ],
      "name": "isPatientRegistered",
      "outputs": [
        {
          "internalType": "bool",
          "name": "",
          "type": "bool"
        }
      ],
      "stateMutability": "view",
      "type": "function"
    },
    {
      "inputs": [
        {
          "internalType": "string",
          "name": "dataCID",
          "type": "string"
        }
      ],
      "name": "registerPatient",
      "outputs": [],
      "stateMutability": "nonpayable",
      "type": "function"
    },
    {
      "inputs": [
        {
          "internalType": "address",
          "name": "providerAddress",
          "type": "address"
        }
      ],
      "name": "revokeAccess",
      "outputs": [],
      "stateMutability": "nonpayable",
      "type": "function"
    },
    {
      "inputs": [
        {
          "internalType": "string",
          "name": "newDataCID",
          "type": "string"
        }
      ],
      "name": "updateDataCID",
      "outputs": [],
      "stateMutability": "nonpayable",
      "type": "function"
    }
  ],
  "bytecode": "0x608060405234801561001057600080fd5b5061095d806100206000396000f3fe608060405234801561001057600080fd5b506004361061007d5760003560e01c806380b6b1b81161005b57806380b6b1b8146100e057806385e68531146100f3578063869c9eaf14610106578063b2469a60146101195761007d565b80630ae5e7391461008257806326cda5e91461009757806365e4ad9e146100c0575b600080fd5b61009561009036600461066d565b61012c565b005b6100aa6100a536600461066d565b6101e7565b6040516100b79190610767565b60405180910390f35b6100d36100ce36600461068e565b610326565b6040516100b7919061072d565b6100d36100ee36600461066d565b61038f565b61009561010136600461066d565b6103b1565b6100956101143660046106c0565b610460565b6100956101273660046106c0565b610518565b3360009081526001602052604090205460ff166101645760405162461bcd60e51b815260040161015b90610828565b60405180910390fd5b6001600160a01b03811661018a5760405162461bcd60e51b815260040161015b906107f1565b336000818152602081815260408083206001600160a01b0386168085526002909101909252808320805460ff19166001179055519092917f9f520b3bfc56d06f7065d10b4683b3f57ac8895d5026cd176dee95ce1454cb8d91a350565b606081336001600160a01b038216148061022557506001600160a01b03811660009081526020818152604080832033845260020190915290205460ff165b6102415760405162461bcd60e51b815260040161015b9061085f565b6001600160a01b03831660009081526001602052604090205460ff166102795760405162461bcd60e51b815260040161015b90610896565b6001600160a01b0383166000908152602081905260409020600101805461029f906108f2565b80601f01602080910402602001604051908101604052809291908181526020018280546102cb906108f2565b80156103185780601f106102ed57610100808354040283529160200191610318565b820191906000526020600020905b8154815290600101906020018083116102fb57829003601f168201915b505050505091505b50919050565b6001600160a01b03821660009081526001602052604081205460ff1661035e5760405162461bcd60e51b815260040161015b90610896565b506001600160a01b039182166000908152602081815260408083209390941682526002909201909152205460ff1690565b6001600160a01b03811660009081526001602052604090205460ff165b919050565b3360009081526001602052604090205460ff166103e05760405162461bcd60e51b815260040161015b90610828565b6001600160a01b0381166104065760405162461bcd60e51b815260040161015b906107f1565b336000818152602081815260408083206001600160a01b0386168085526002909101909252808320805460ff19169055519092917f825c8be24eb0df19500f63e86c29e7d0d951e73056b889b891d85e40938d9b6e91a350565b3360009081526001602052604090205460ff16156104905760405162461bcd60e51b815260040161015b906107ba565b336000818152600160208181526040808420805460ff1916841790559083905290912080546001600160a01b03191690921782556104d0910183836105bd565b50336001600160a01b03167fc85b128388b9c331a2a5485dce4cd0f3db9f7c279d327ce95d6d39d6c94644c7838360405161050c929190610738565b60405180910390a25050565b3360009081526001602052604090205460ff166105475760405162461bcd60e51b815260040161015b90610828565b806105645760405162461bcd60e51b815260040161015b906108cd565b3360009081526020819052604090206105819060010183836105bd565b50336001600160a01b03167f4c31ed282038859bea038bbefd4feda3c821349a2303562c3d33b0fe6301dab9838360405161050c929190610738565b8280546105c9906108f2565b90600052602060002090601f0160209004810192826105eb5760008555610631565b82601f106106045782800160ff19823516178555610631565b82800160010185558215610631579182015b82811115610631578235825591602001919060010190610616565b5061063d929150610641565b5090565b5b8082111561063d5760008155600101610642565b80356001600160a01b03811681146103ac57600080fd5b60006020828403121561067e578081fd5b61068782610656565b9392505050565b600080604083850312156106a0578081fd5b6106a983610656565b91506106b760208401610656565b90509250929050565b600080602083850312156106d2578182fd5b823567ffffffffffffffff808211156106e9578384fd5b818501915085601f8301126106fc578384fd5b81358181111561070a578485fd5b86602082850101111561071b578485fd5b60209290920196919550909350505050565b901515815260200190565b60006020825282602083015282846040840137818301604090810191909152601f909201601f19160101919050565b6000602080835283518082850152825b8181101561079357858101830151858201604001528201610777565b818111156107a45783604083870101525b50601f01601f1916929092016040019392505050565b6020808252601a908201527f50617469656e7420616c72656164792072656769737465726564000000000000604082015260600190565b60208082526018908201527f496e76616c69642070726f766964657220616464726573730000000000000000604082015260600190565b60208082526019908201527f43616c6c6572206973206e6f74207468652070617469656e7400000000000000604082015260600190565b60208082526018908201527f43616c6c6572206973206e6f7420617574686f72697a65640000000000000000604082015260600190565b60208082526019908201527f50617469656e74206973206e6f74207265676973746572656400000000000000604082015260600190565b6020808252600b908201526a125b9d985b1a590810d25160aa1b604082015260600190565b60028104600182168061090657607f821691505b6020821081141561032057634e487b7160e01b600052602260045260246000fdfea2646970667358221220f78799784fbf94a2cfce13791a13a714f3eada64fc18cdfe36a8e0060db0d43364736f6c63430008000033",
  "linkReferences": {},
  "deployedLinkReferences": {}
}