{
  "_format": "hh-sol-artifact-1",
  "contractName": "MedicalRecords",
  "sourceName": "contracts/MedicalRecords.sol",
  "abi": [
    {
      "inputs": [
        {
          "internalType": "address",
          "name": "_accessControlAddress",
          "type": "address"
        }
      ],
      "stateMutability": "nonpayable",
      "type": "constructor"
    },
    {
      "anonymous": false,
      "inputs": [
        {
          "indexed": true,
          "internalType": "address",
          "name": "patientAddress",
          "type": "address"
        },
        {
          "indexed": true,
          "internalType": "address",
          "name": "providerAddress",
          "type": "address"
        },
        {
          "indexed": false,
          "internalType": "bytes32",
          "name": "encryptedCID",
          "type": "bytes32"
        }
      ],
      "name": "MedicalRecordUploaded",
      "type": "event"
    },
    {
      "inputs": [],
      "name": "getMedicalRecords",
      "outputs": [
        {
          "components": [
            {
              "internalType": "bytes32",
              "name": "encryptedCID",
              "type": "bytes32"
            },
            {
              "internalType": "uint256",
              "name": "timestamp",
              "type": "uint256"
            }
          ],
          "internalType": "struct MedicalRecords.Record[]",
          "name": "",
          "type": "tuple[]"
        }
      ],
      "stateMutability": "view",
      "type": "function"
    },
    {
      "inputs": [
        {
          "internalType": "address",
          "name": "patientAddress",
          "type": "address"
        }
      ],
      "name": "getPatientRecords",
      "outputs": [
        {
          "components": [
            {
              "internalType": "bytes32",
              "name": "encryptedCID",
              "type": "bytes32"
            },
            {
              "internalType": "uint256",
              "name": "timestamp",
              "type": "uint256"
            }
          ],
          "internalType": "struct MedicalRecords.Record[]",
          "name": "",
          "type": "tuple[]"
        }
      ],
      "stateMutability": "view",
      "type": "function"
    },
    {
      "inputs": [
        {
          "internalType": "address",
          "name": "patientAddress",
          "type": "address"
        },
        {
          "internalType": "bytes32",
          "name": "encryptedCID",
          "type": "bytes32"
        }
      ],
      "name": "uploadMedicalRecord",
      "outputs": [],
      "stateMutability": "nonpayable",
      "type": "function"
    }
  ],
  "bytecode": "0x608060405234801561001057600080fd5b5060405161058038038061058083398101604081905261002f91610054565b600180546001600160a01b0319166001600160a01b0392909216919091179055610082565b600060208284031215610065578081fd5b81516001600160a01b038116811461007b578182fd5b9392505050565b6104ef806100916000396000f3fe608060405234801561001057600080fd5b50600436106100415760003560e01c806318bd484714610046578063357bcff71461006f5780636aea20d314610084575b600080fd5b6100596100543660046103a6565b61008c565b604051610066919061042a565b60405180910390f35b61008261007d3660046103c7565b6101cf565b005b61005961030e565b6001546040516362e1f74560e01b81526060918391336001600160a01b038085168214936000939116916362e1f745916100ca918791600401610410565b60206040518083038186803b1580156100e257600080fd5b505afa1580156100f6573d6000803e3d6000fd5b505050506040513d601f19601f8201168201806040525081019061011a91906103f0565b905081806101255750805b61014a5760405162461bcd60e51b815260040161014190610482565b60405180910390fd5b6001600160a01b03851660009081526020818152604080832080548251818502810185019093528083529193909284015b828210156101c15783829060005260206000209060020201604051806040016040529081600082015481526020016001820154815250508152602001906001019061017b565b505050509350505050919050565b6001546040516362e1f74560e01b81528391336001600160a01b03808516821493600093909116916362e1f7459161020b918791600401610410565b60206040518083038186803b15801561022357600080fd5b505afa158015610237573d6000803e3d6000fd5b505050506040513d601f19601f8201168201806040525081019061025b91906103f0565b905081806102665750805b6102825760405162461bcd60e51b815260040161014190610482565b6001600160a01b038516600081815260208181526040808320815180830183528981524281850190815282546001818101855593875294909520905160029094020192835592519190920155513391907f80c280894b0e3634330126f3b8ecc43b218ec6773a5081f1c2fc359efceb61b6906102ff908890610479565b60405180910390a35050505050565b33600090815260208181526040808320805482518185028101850190935280835260609492939192909184015b828210156103815783829060005260206000209060020201604051806040016040529081600082015481526020016001820154815250508152602001906001019061033b565b50505050905090565b80356001600160a01b03811681146103a157600080fd5b919050565b6000602082840312156103b7578081fd5b6103c08261038a565b9392505050565b600080604083850312156103d9578081fd5b6103e28361038a565b946020939093013593505050565b600060208284031215610401578081fd5b815180151581146103c0578182fd5b6001600160a01b0392831681529116602082015260400190565b602080825282518282018190526000919060409081850190868401855b8281101561046c57815180518552860151868501529284019290850190600101610447565b5091979650505050505050565b90815260200190565b60208082526018908201527f43616c6c6572206973206e6f7420617574686f72697a6564000000000000000060408201526060019056fea2646970667358221220fd9cca45ecc5909181338060bcf38ab9a14ab7f7097167d33afd203ed794e77e64736f6c63430008000033",
  "linkReferences": {},
  "deployedLinkReferences": {}
}